{
  "contractName": "personsContract",
  "abi": [
    {
      "inputs": [],
      "payable": false,
      "stateMutability": "nonpayable",
      "type": "constructor"
    },
    {
      "anonymous": false,
      "inputs": [
        {
          "indexed": false,
          "internalType": "uint256",
          "name": "id",
          "type": "uint256"
        }
      ],
      "name": "PersonCreated",
      "type": "event"
    },
    {
      "anonymous": false,
      "inputs": [
        {
          "indexed": false,
          "internalType": "uint256",
          "name": "id",
          "type": "uint256"
        }
      ],
      "name": "PersonDeleted",
      "type": "event"
    },
    {
      "anonymous": false,
      "inputs": [
        {
          "indexed": false,
          "internalType": "uint256[]",
          "name": "ids",
          "type": "uint256[]"
        }
      ],
      "name": "PersonsIndex",
      "type": "event"
    },
    {
      "constant": true,
      "inputs": [],
      "name": "numberOfPersons",
      "outputs": [
        {
          "internalType": "uint256",
          "name": "",
          "type": "uint256"
        }
      ],
      "payable": false,
      "stateMutability": "view",
      "type": "function"
    },
    {
      "constant": true,
      "inputs": [
        {
          "internalType": "uint256",
          "name": "",
          "type": "uint256"
        }
      ],
      "name": "personList",
      "outputs": [
        {
          "internalType": "uint256",
          "name": "",
          "type": "uint256"
        }
      ],
      "payable": false,
      "stateMutability": "view",
      "type": "function"
    },
    {
      "constant": true,
      "inputs": [
        {
          "internalType": "uint256",
          "name": "",
          "type": "uint256"
        }
      ],
      "name": "persons",
      "outputs": [
        {
          "internalType": "uint256",
          "name": "id",
          "type": "uint256"
        },
        {
          "internalType": "string",
          "name": "name",
          "type": "string"
        },
        {
          "internalType": "uint256",
          "name": "age",
          "type": "uint256"
        },
        {
          "internalType": "bool",
          "name": "isMarried",
          "type": "bool"
        }
      ],
      "payable": false,
      "stateMutability": "view",
      "type": "function"
    },
    {
      "constant": false,
      "inputs": [
        {
          "internalType": "string",
          "name": "_name",
          "type": "string"
        },
        {
          "internalType": "uint256",
          "name": "_age",
          "type": "uint256"
        },
        {
          "internalType": "bool",
          "name": "_isMarried",
          "type": "bool"
        }
      ],
      "name": "createPerson",
      "outputs": [],
      "payable": false,
      "stateMutability": "nonpayable",
      "type": "function"
    },
    {
      "constant": false,
      "inputs": [
        {
          "internalType": "uint256",
          "name": "id",
          "type": "uint256"
        }
      ],
      "name": "removePerson",
      "outputs": [],
      "payable": false,
      "stateMutability": "nonpayable",
      "type": "function"
    },
    {
      "constant": true,
      "inputs": [],
      "name": "getIndexList",
      "outputs": [
        {
          "internalType": "uint256[]",
          "name": "",
          "type": "uint256[]"
        }
      ],
      "payable": false,
      "stateMutability": "view",
      "type": "function"
    }
  ],
  "bytecode": "0x608060405260008055600060015534801561001957600080fd5b5060408051808201909152600981526829b2b130b9ba34b0b760b91b602082015261005090602b60016001600160e01b0361005516565b6101e0565b60008054600190810180835581548201825560408051608081018252828152602080820189815282840189905287151560608401529386526002815291909420845181559151805192936100b193908501929190910190610145565b5060408281015160028301556060909201516003918201805460ff1916911515919091179055600080548254600181018455929091527fc2575a0e9e593c00f959f8c92f12db2869c3395a3b0502d05e2516446f71f85b909101819055815190815290517f177a8dcbc8cc0cb86b7f637eb5194a0279dbd5c5d8d50fcca05da34ee457b510916020908290030190a1505050565b828054600181600116156101000203166002900490600052602060002090601f016020900481019282601f1061018657805160ff19168380011785556101b3565b828001600101855582156101b3579182015b828111156101b3578251825591602001919060010190610198565b506101bf9291506101c3565b5090565b6101dd91905b808211156101bf57600081556001016101c9565b90565b610614806101ef6000396000f3fe608060405234801561001057600080fd5b50600436106100625760003560e01c80636b44374d146100675780638d560508146100965780639c4a8ff51461009e578063a2f9eac6146100f6578063bdfd5e1f146101a1578063e2c93c2914610250575b600080fd5b6100846004803603602081101561007d57600080fd5b503561026d565b60408051918252519081900360200190f35b61008461028b565b6100a6610291565b60408051602080825283518183015283519192839290830191858101910280838360005b838110156100e25781810151838201526020016100ca565b505050509050019250505060405180910390f35b6101136004803603602081101561010c57600080fd5b50356102ea565b60408051858152908101839052811515606082015260806020808301828152865192840192909252855160a084019187019080838360005b8381101561016357818101518382015260200161014b565b50505050905090810190601f1680156101905780820380516001836020036101000a031916815260200191505b509550505050505060405180910390f35b61024e600480360360608110156101b757600080fd5b8101906020810181356401000000008111156101d257600080fd5b8201836020820111156101e457600080fd5b8035906020019184600183028401116401000000008311171561020657600080fd5b91908080601f0160208091040260200160405190810160405280939291908181526020018383808284376000920191909152509295505082359350505060200135151561039f565b005b61024e6004803603602081101561026657600080fd5b503561048f565b6003818154811061027a57fe5b600091825260209091200154905081565b60015481565b606060038054806020026020016040519081016040528092919081815260200182805480156102df57602002820191906000526020600020905b8154815260200190600101908083116102cb575b505050505090505b90565b60026020818152600092835260409283902080546001808301805487519281161561010002600019011695909504601f81018590048502820185019096528581529094919390929091908301828280156103855780601f1061035a57610100808354040283529160200191610385565b820191906000526020600020905b81548152906001019060200180831161036857829003601f168201915b50505050600283015460039093015491929160ff16905084565b60008054600190810180835581548201825560408051608081018252828152602080820189815282840189905287151560608401529386526002815291909420845181559151805192936103fb93908501929190910190610500565b5060408281015160028301556060909201516003918201805460ff1916911515919091179055600080548254600181018455929091527fc2575a0e9e593c00f959f8c92f12db2869c3395a3b0502d05e2516446f71f85b909101819055815190815290517f177a8dcbc8cc0cb86b7f637eb5194a0279dbd5c5d8d50fcca05da34ee457b510916020908290030190a1505050565b600180546000190181556000828152600260205260408120818155916104b79083018261057e565b5060006002820155600301805460ff191690556040805182815290517fde7e99da9327ecd509f01f86a05acafe61c6a4e7e6884c16fbb86db5165ea7d99181900360200190a150565b828054600181600116156101000203166002900490600052602060002090601f016020900481019282601f1061054157805160ff191683800117855561056e565b8280016001018555821561056e579182015b8281111561056e578251825591602001919060010190610553565b5061057a9291506105c5565b5090565b50805460018160011615610100020316600290046000825580601f106105a457506105c2565b601f0160209004906000526020600020908101906105c291906105c5565b50565b6102e791905b8082111561057a57600081556001016105cb56fea265627a7a723158204578c0e375c60831df901aef08d5c449a08ddee6f2680123b43e58c5570bcd9664736f6c63430005100032",
  "source": "// SPDX-License-Identifier: MIT\r\npragma solidity >=0.4.22 <0.9.0;\r\n\r\ncontract personsContract {\r\n    uint nextId = 0;\r\n    uint public numberOfPersons = 0;\r\n\r\n    struct Person {\r\n        uint id;\r\n        string name;\r\n        uint age;\r\n        bool isMarried;\r\n    }\r\n\r\n    event PersonCreated(uint id);\r\n    event PersonDeleted(uint id);\r\n    event PersonsIndex(uint[] ids);\r\n\r\n    mapping(uint => Person) public persons;\r\n    uint[] public personList;\r\n\r\n    function createPerson(\r\n        string memory _name,\r\n        uint _age,\r\n        bool _isMarried\r\n    ) public {\r\n        nextId++;\r\n        numberOfPersons++;\r\n        persons[nextId] = Person(nextId, _name, _age, _isMarried);\r\n        personList.push(nextId);\r\n        emit PersonCreated(nextId);\r\n    }\r\n\r\n    function removePerson(uint id) public {\r\n        numberOfPersons--;\r\n        delete persons[id];\r\n        emit PersonDeleted(id);\r\n    }\r\n\r\n    function getIndexList() public view returns (uint[] memory) {\r\n        return personList;\r\n    }\r\n\r\n    constructor() public {\r\n        createPerson(\"Sebastian\", 43, true);\r\n    }\r\n}\r\n",
  "sourcePath": "C:\\Work\\BCU23D\\Demon\\9-Solidity\\contracts\\personsContract.sol",
  "compiler": {
    "name": "solc",
    "version": "0.5.16+commit.9c3226ce.Emscripten.clang"
  },
  "schemaVersion": "3.4.16",
  "updatedAt": "2024-03-18T09:15:14.874Z",
  "networkType": "ethereum",
  "devdoc": {
    "methods": {}
  },
  "userdoc": {
    "methods": {}
  }
}